:020000040800F2
:10000000D00600208933000891330008933300089C
:10001000953300089733000899330008000000006A
:100020000000000000000000000000009B330008FA
:100030009D330008000000009F330008A133000832
:10004000A3330008A3330008A3330008A333000838
:10005000A3330008A3330008A3330008A333000828
:10006000A3330008A3330008A3330008B732000805
:10007000CD320008E5320008FD32000815330008D3
:100080002D33000845330008A333000800000000AA
:10009000000000000000000000000000A333000882
:1000A000A3330008A3330008A3330008A3330008D8
:1000B000A3330008A3330008A3330008A3330008C8
:1000C000A3330008A3330008A3330008A3330008B8
:1000D000A3330008A3330008A3330008A3330008A8
:1000E000A3330008A3330008A33300080000000076
:1000F0000000000000000000000000000000000000
:1001000000000000000000000000000000000000EF
:100110000000000000000000A3330008A333000823
:1001200000F002F800F04DF80AA090E8000C8244BC
:100130008344AAF10107DA4501D100F042F8AFF299
:10014000090EBAE80F0013F0010F18BFFB1A43F0B5
:1001500001031847584A0000784A0000103A24BFAB
:1001600078C878C1FAD8520724BF30C830C144BF1C
:1001700004680C607047000000230024002500265E
:10018000103A28BF78C1FBD8520728BF30C148BFFA
:100190000B607047662904F0A084752903F02C8257
:1001A000782903F06582002070471FB503F0D0FD69
:1001B00004000020002104F023FBE0601FBD10B507
:1001C00010BD03F0C5FE1146FFF7EFFF00F008F881
:1001D00003F0E3FE03B4FFF7F2FF03BC03F026FFD6
:1001E0001FB500F0EBFA00F000FB00F079FA00F028
:1001F00030FB4E48007828B100F095F900F0AEF9D8
:1002000000F0DCF84FF4807000F006FB48480078FE
:1002100000283AD047A1484803F0B2F9464800F018
:10022000B9FA46A1444803F0ABF9434800F0B2FAEA
:1002300000F094FB48F25D0000F056FE43F21750C8
:1002400000F052FE032203A94EF6C87000F05AFED9
:100250009DF80E0000909DF80D309DF80C203EA1F9
:10026000354803F08DF9344800F094FA4BF29800C9
:1002700000F03AFE40A1304803F082F92E4800F029
:1002800089FA2CA12C4803F07BF94EE04FF4007062
:1002900000F0C2FA25480078A0B100F059F94FF6F5
:1002A000FF7000F07AF93B4908800988881004F053
:1002B000B1FB04464FF0814104F0EAFA3649086088
:1002C00000F04CF91A48007878B101A800F02FFE30
:1002D000019804F0B1FA044622460B462FA11648B5
:1002E00003F04EF9144800F055FA30480078C0B1D8
:1002F000412000F03AFA422000F037FA0D2000F0D9
:1003000034FA0A2000F031FA4FF4FA7000F0D1FA12
:100310002748028827A1084803F032F9064800F070
:1003200039FA4FF4007000F077FAAFE708000020C8
:10033000090000200D0A000038000020496E697491
:1003400069616C697A696E672053485443332E2E75
:100350002E200D0A00000000526563656976656411
:100360003A202530327820092025303278200920A3
:1003700025303278200D0A00534854433320676FEC
:10038000696E6720746F20736C6565702E2E2E0D5C
:100390000A000000000000200400002054656D7079
:1003A0003A2025302E3266200D0A00000A00002077
:1003B0002408004025752075730D0A0000B587B02C
:1003C00006A800F042FF01A801F09BFC012141F2C8
:1003D000050001F07AFB2020ADF8180018208DF8F8
:1003E0001B0003208DF81A0006A9B94800F0A2FEF0
:1003F0004020ADF8180048208DF81B0003208DF830
:100400001A0006A9B24800F095FE8020ADF8180049
:1004100018208DF81B0003208DF81A0006A9AC489F
:1004200000F088FE0020ADF804004FF48270ADF8B3
:1004300006004FF40060ADF808000020ADF812008F
:10044000ADF80A000120ADF80C004002ADF80E0036
:100450001020ADF810000720ADF8140001A99D4848
:1004600001F0C0FB01219B4801F061FC07B000BD19
:1004700000B587B006A800F0E8FE01A801F041FC35
:10048000012141F2050001F020FB2020ADF8180009
:1004900018208DF81B0003208DF81A0006A98C483F
:1004A00000F048FE4020ADF8180048208DF81B00F1
:1004B00003208DF81A0006A9854800F03BFE802035
:1004C000ADF8180018208DF81B0003208DF81A00D5
:1004D00006A97F4800F02EFE4FF40040ADF804005E
:1004E0004FF48270ADF806004FF40060ADF80800DC
:1004F0000020ADF81200ADF80A000120ADF80C00A4
:100500004002ADF80E002820ADF810000720ADF82D
:10051000140001A96F4801F065FB01216D4801F04D
:1005200006FC07B000BD08B5684600F08EFE01214C
:10053000042001F0CAFA1020ADF800008DF8030085
:1005400002208DF802006946614800F0F3FD08BD05
:1005500010B510215E4800F09CFE10BD10B51021B2
:100560005B4800F094FE10BD10B5044600BF0221A8
:10057000584801F060FC0028F9D02146554801F0A8
:1005800007FC00BF0121534801F055FC0028F9D0B9
:10059000504801F0FFFBC0B210BD10B5044600BFCB
:1005A00002214C4801F047FC0028F9D02146494877
:1005B00001F0EEFB00BF0121464801F03CFC0028A1
:1005C000F9D0444801F0E6FB10BD10B500BF012191
:1005D000404801F030FC0028F9D03E4801F0DAFB39
:1005E00010BD00B587B006A800F02FFE01A801F0ED
:1005F00088FB0121092001F068FA0121880301F03C
:1006000071FA4FF40050ADF8180018208DF81B0057
:1006100001208DF81A0006A92F4800F08BFD4FF439
:100620008040ADF8180048208DF81B0001208DF89F
:100630001A0006A9284800F07DFD4FF40040ADF8EF
:10064000180018208DF81B0001208DF81A0006A94B
:10065000214800F06FFD0020ADF804004FF48270D7
:10066000ADF806000020ADF80800ADF81200ADF8B6
:100670000A000120ADF80C004002ADF80E00102079
:10068000ADF810000720ADF8140001A9134801F0DF
:10069000A9FA0121114801F04AFB07B000BD10B5CD
:1006A000044600BF02210D4801F0C5FB0028F9D027
:1006B00021460A4801F06CFB00BF0121074801F008
:1006C000BAFB0028F9D0054801F064FBC0B210BDA8
:1006D0000008014000300140000C0140003800409B
:1006E00000B585B004A800F0B0FD684602F094FBA8
:1006F0000121042001F0E9F90121084601F0E5F9A2
:100700000121480401F0EEF90420ADF81000182092
:100710008DF8130003208DF8120004A9254800F07D
:1007200009FD0820ADF8100048208DF8130004A939
:10073000204800F0FFFC4FF4964000900020ADF8F8
:100740000400ADF80600ADF808000C20ADF80A0072
:100750000020ADF80C006946174802F0F4FA0121B8
:10076000154802F07CFB05B000BD10B5044600BF83
:100770008021114802F04EFC0028F9D021460E4895
:1007800002F0DAFB00BF40210B4802F043FC0028D6
:10079000F9D010BD70B50546002404E0285DFFF7D0
:1007A000E4FF601CC4B2284603F02AF8A042F5D842
:1007B00070BD0000000801400044004008B56846D4
:1007C00000F043FD0121102001F07FF94FF480700B
:1007D000ADF8000010208DF8030002208DF8020013
:1007E0006946164800F0A6FC08BD08B5684600F04A
:1007F0002CFD0121102001F068F94FF40070ADF8D4
:10080000000010208DF8030002208DF802006946D8
:100810000A4800F08FFC08BD10B50446A1B2074895
:1008200000F028FD20B1A1B2044800F032FD03E041
:10083000A1B2024800F02BFD10BD000000100140E5
:1008400001B502E00098401E009000980028F9D100
:1008500008BD0EB5684601F025FF0121202001F0FA
:1008600041F93A4800683A49B0FBF1F0401E80B2C5
:10087000ADF800004FF6FF70ADF804000020ADF8B1
:100880000600ADF802008DF808006946314801F015
:10089000DDFB01212F4801F035FF0EBD00212D4A5F
:1008A0002432118000BF2B49243109888142FADBB0
:1008B00070470CE00021274A24321180411E88B283
:1008C00000BF244924310988B1F57A7FF9DB00287B
:1008D000F0DC70471FB5044601A801F0E3FE0121DA
:1008E000102001F0FFF819480068B0FBF4F04FF455
:1008F000FA61B0FBF1F0401E80B2ADF80400481E72
:10090000ADF808000020ADF80A00ADF806008DF83B
:100910000C0001A9104801F099FB012211460E4874
:1009200001F00BFF36208DF8000000208DF801004B
:100930008DF8020001208DF80300684600F031FBBD
:100940000121054801F0DEFE1FBD0000240000204B
:1009500040420F00001400400010004000B585B078
:1009600004A800F072FC684600F0BAFD01210820DE
:1009700001F0ABF88020ADF8100003208DF81200D4
:100980001C208DF8130004A9FE4800F0D3FB402082
:10099000ADF8100003208DF812001C208DF8130014
:1009A00004A9F84800F0C6FB0121480501F09AF8B7
:1009B0000121480501F0B0F800214FF4001001F0CA
:1009C000ABF841F2883000900020ADF804004BF6FF
:1009D000FF70ADF806000020ADF808004FF480600D
:1009E000ADF80A000001ADF80C006946E64800F0D9
:1009F00008FD0121E44800F082FD05B000BD00B50E
:100A000085B004A800F021FC684600F069FD0021D3
:100A1000DD4800F074FDC020ADF8100003208DF813
:100A2000120014208DF8130004A9D64800F082FBB0
:100A3000C021D44800F02BFC00BF4021D14800F079
:100A400019FC0028F9D000BF8021CE4800F012FC2C
:100A50000028F9D08021CB4800F01BFC00BF80218A
:100A6000C84800F007FC0028F9D14021C54800F033
:100A700010FC00BF4021C34800F0FCFB0028F9D166
:100A80004021C04800F003FC00BF4021BD4800F0F9
:100A9000F1FB0028F9D08021BA4800F0F8FB00BF34
:100AA0008021B84800F0E6FB0028F9D0C020ADF85E
:100AB000100003208DF812001C208DF8130004A9EB
:100AC000B04800F037FB0121480501F025F800216E
:100AD0004FF4001001F020F841F28830009000201F
:100AE000ADF804004BF6FF70ADF806000020ADF83D
:100AF00008004FF48060ADF80A000001ADF80C006A
:100B00006946A14800F07DFC01219F4800F0F7FCF8
:100B100005B000BD70B504460D4600BF4FF400316E
:100B2000994800F013FE0028F8D10121964800F002
:100B30000AFD00BF9549944800F0E6FD0028F9D071
:100B400000222146904800F054FD00BF90498E4895
:100B500000F0DAFD0028F9D029468B4800F043FD6B
:100B600000BF8B49891C884800F0CEFD0028F8D0D2
:100B70000121854800F0F3FC00BF8649824800F05F
:100B8000E5FD0028F9D170BD70B506460C46154646
:100B900005B970BD00BF4FF400317B4800F0D6FDB1
:100BA0000028F8D10121784800F0CDFC00BF77493A
:100BB000754800F0A9FD0028F9D07006010E00224A
:100BC000714800F016FD00BF71496F4800F09CFDB0
:100BD0000028F9D014F8011B6B4800F004FD0CE06C
:100BE00000BF6C490C39684800F0B0FD0028F8D00F
:100BF00014F8011B644800F0F6FC681E051EEFD1D6
:100C000000BF64490C39604800F0A0FD0028F8D00E
:100C100001215D4800F0A3FC00BF5E495A4800F086
:100C200095FD0028F9D100BFB3E72DE9F041054655
:100C30000C46E7B2260A00BF4FF40031524800F0DC
:100C400085FD0028F8D101214F4800F07CFC00BF51
:100C50004E494D4800F058FD0028F9D000222946A1
:100C6000494800F0C6FC00BF4949474800F04CFD28
:100C70000028F9D03146444800F0B5FC00BF444993
:100C8000891C414800F040FD0028F8D039463E4814
:100C900000F0A9FC00BF3E49891C3B4800F034FD30
:100CA0000028F8D00121384800F059FC00BF39492C
:100CB000354800F04BFD0028F9D1BDE8F08110B5B2
:100CC000044600BF4FF400312F4800F03FFD0028DC
:100CD000F8D101212C4800F04EFC4FF2FF712A4858
:100CE00000F0A6FC0121284800F02DFC00BF274998
:100CF000254800F009FD0028F9D0012221462248AC
:100D000000F077FC00BF23490E391F4800F01EFD9C
:100D10000028F8D000211C4800F02DFC72B61A48BB
:100D2000183000880121184800F019FC62B600BF95
:100D300018493031144800F009FD0028F8D0124855
:100D400000F053FC10BD70B506460C46154605B9BB
:100D500070BD00BF4FF400310B4800F0F7FC0028D5
:100D6000F8D10121084800F006FC4FF2FF71064857
:100D700000F05EFC0121044800F0E5FB00BF0349E0
:100D8000014809E0000C014000540040010003004C
:100D9000820007001000001000F0B6FC0028EED022
:100DA0007006010E01224B4800F023FC00BF4A49A7
:100DB000484800F0CBFC0028F9D0012D1AD10021C1
:100DC000444800F0D8FB72B6424818300088012130
:100DD000404800F0C4FB62B600BF3F493E313D4889
:100DE00000F0B4FC0028F8D03A4800F0FEFB04F80C
:100DF000010B65E0022D25D1A902364800F018FC50
:100E000072B63448183000880021324800F0B3FB35
:100E100062B600BF3049891C2E4800F097FC0028BC
:100E2000F8D072B601212B4800F099FB2948103008
:100E3000008804F8010B62B626481030008804F8D8
:100E4000010B3DE02348183000880CE000BF224928
:100E5000891C204800F07AFC0028F8D01D4800F0DA
:100E6000C4FB04F8010B28466D1E0328EED100BF19
:100E70001949891C174800F069FC0028F8D00021A6
:100E8000144800F078FB72B6124800F0AEFB04F88C
:100E9000010B01210F4800F062FB62B60D4800F023
:100EA000A4FB04F8010B00BF0C490A4800F02CFC1D
:100EB0000028F9D0074800F098FB04F8010B002542
:100EC00000BF05490E31034800F040FC0028F8D16E
:100ED00000BF3DE700540040020000104000030046
:100EE00040F2C1310160704738B50446200A8DF8E0
:100EF0000000E0B28DF80100022269467020FFF781
:100F000043FE38BDF8B504460D461646200A8DF856
:100F10000000E0B28DF80100022269467020FFF760
:100F200033FE324629467020FFF70DFFF8BD2DE94C
:100F3000FC41044643F21750FFF7D6FF06226946EC
:100F400047F6A240FFF7DEFF4BF29800FFF7CCFF19
:100F50009DF801009DF8001040EA01269DF804006C
:100F60009DF8031040EA0127AF2106FB01F5E917C0
:100F700005EB11410914A1F12D0003F04BFD206098
:100F8000642007FB00F5E91705EB1141081403F095
:100F900041FD6060BDE8FC8131490143314A116087
:100FA000704770B5002100230F22C47804B32D4C84
:100FB000246804F4E064C4F5E064210AC1F1040388
:100FC000CA40447804FA03F18478144021430901AB
:100FD000254C0678A155047804F01F050124AC4087
:100FE00005786D11AD0005F1E025C5F8004109E077
:100FF000047804F01F050124AC401C4D06787611DE
:1010000045F8264070BD1A4A0A400243154B1B1F83
:101010001A60704739B1134A121D12680243114B0E
:101020001B1D1A6006E00F4A121D126882430D4B09
:101030001B1D1A607047042808D14FF0E021096990
:1010400041F004014FF0E022116107E04FF0E02190
:10105000096921F004014FF0E0221161704700009E
:101060000000FA050CED00E000E400E080E100E0A3
:1010700080FFFF1F10B50446CC48844208D10121EF
:10108000042000F03CFD0021042000F038FD46E083
:10109000C748844208D10121082000F030FD00211A
:1010A000082000F02CFD3AE0C248844208D101211A
:1010B000102000F024FD0021102000F020FD2EE083
:1010C000BD48844208D10121202000F018FD0021F4
:1010D000202000F014FD22E0B848844208D101210C
:1010E000402000F00CFD0021402000F008FD16E03B
:1010F000B348844208D10121802000F000FD002186
:10110000802000F0FCFC0AE0AE48844207D10121B7
:10111000801500F0F4FC0021A01500F0F0FC10BDDB
:1011200010B50121084600F0EAFC0021012000F082
:10113000E6FC10BD2DE9F041024600250026002006
:1011400000230024002791F803C00CF00F0591F84C
:1011500003C00CF0100CBCF1000F03D091F802C0DA
:101160004CEA050591F800C0BCF1000F31D01468BD
:1011700000202BE04FF0010C0CFA00F3B1F800C096
:101180000CEA03069E4220D183004FF00F0C0CFAAC
:1011900003F7BC4305FA03FC4CEA040491F803C0CE
:1011A000BCF1280F06D14FF0010C0CFA00FCC2F87C
:1011B00014C00AE091F803C0BCF1480F05D14FF00C
:1011C000010C0CFA00FCC2F810C0401C0828D1D356
:1011D0001460B1F800C0BCF1FF0F34DD546800208A
:1011E0002EE000F1080C4FF0010808FA0CF3B1F8FA
:1011F00000C00CEA03069E4221D183004FF00F0C81
:101200000CFA03F7BC4305FA03FC4CEA040491F81A
:1012100003C0BCF1280F05D100F1080C08FA0CF846
:10122000C2F8148091F803C0BCF1480F07D100F157
:10123000080C4FF0010808FA0CF8C2F81080401CA6
:101240000828CED35460BDE8F0814FF6FF710180CD
:10125000022181700421C17070470246002093680A
:101260000B400BB1012000E0002070470146886868
:1012700080B2704702460020D3680B400BB10120BA
:1012800000E0002070470146C86880B270470161E5
:101290007047416170470AB1016100E041617047E8
:1012A000C16070474FF480320A438261816182617C
:1012B00082698269704702460020434B18684FF6E6
:1012C0008073184040EA021008433F4B1860704793
:1012D0003E49C8617047F0B50A460023002400214A
:1012E000002500F00046B6F1004F02D1364EF169FC
:1012F00001E0354E7168C0F3034583B200F4401637
:10130000B6F5401F08D121F070612F4E766826F0A7
:1013100070662D4F7E6012E000F48016B6F5801FD7
:1013200006D1032606FA05F4A14341F0706106E0F8
:10133000460D360103FA06F6B14341F0706122B161
:10134000460D360103FA06F6314300F00046B6F1C9
:10135000004F02D11C4EF16101E01B4E7160F0BDE7
:1013600030B500228B071C0F0F2303FA04F2164B33
:1013700008338C1053F824309343134C08348D10E9
:1013800044F8253023468C1053F824308C07240F62
:1013900000FA04F423430C4C08348D1044F8253033
:1013A00030BD0A49DC310860704700000008014088
:1013B000000C0140001001400014014000180140E1
:1013C000001C0140002001400000014000002042BC
:1013D00010B50446F748844209D10121480500F0C0
:1013E0009BFB00214FF4001000F096FB08E0012168
:1013F000880500F091FB00214FF4800000F08CFB89
:1014000010BD2DE9F04385B004460D460026B146D7
:101410000427DFF8A483A6884FF6C070064068460C
:1014200000F0E7FADDF80880E448B8FBF0F01FFAB6
:1014300080F946EA0906A68020884FF6FE7108402A
:1014400020800026DE49286888420CD828684000A1
:10145000B8FBF0F087B2042F00DA04273E4309F10D
:101460000100208427E0E8884BF6FF71884206D10E
:10147000286800EB4000B8FBF0F087B209E028686C
:1014800000EBC00101EB0010B8FBF0F087B247F4AD
:101490008047C7F30B0008B947F0010747F4004045
:1014A00006434FF4967009FB00F04FF47A7190FBFD
:1014B000F1F0401C2084A683208840F001002080A9
:1014C00026884FF6F5300640A88869890843064308
:1014D0002680A88929890843208105B0BDE8F083CA
:1014E00041F288310160002181804BF6FF71C1809B
:1014F0000021018141814FF480418181704721B1F8
:10150000028842F00102028004E002884FF6FE7376
:101510001A400280704721B1828842F400628280C2
:1015200004E082884FF2FF731A408280704721B135
:10153000828842F48052828004E082884EF6FF73F3
:101540001A408280704721B1028842F48072028082
:1015500004E002884FF6FF631A400280704721B111
:10156000028842F40072028004E002884FF6FF53C2
:101570001A400280704721B1028842F480620280E2
:1015800004E002884FF6FF331A40028070470A4693
:10159000002181894FF60173194002F0FE031943BF
:1015A0008181704721B1828942F00102828104E089
:1015B00082894FF6FE731A408281704721B10288FA
:1015C00042F04002028004E002884FF6BF731A40E6
:1015D000028070471AB183880B43838002E08388BE
:1015E0008B4383807047018270470146088AC0B2EE
:1015F000704712B141F0010102E04FF6FE7319404D
:101600000182704708B502460020009000920098C1
:10161000084400900098008808BD21B1028842F477
:101620000042028003E00288C2F30E02028070478B
:10163000B1F5006F04D1028842F40062028004E038
:1016400002884FF2FF731A4002807047B1F5005FC5
:1016500004D1028842F40052028004E002884DF670
:10166000FF731A400280704721B1028842F4805211
:10167000028004E002884EF6FF731A400280704731
:10168000B1F5006F04D1028842F40062028004E0E8
:1016900002884FF2FF731A400280704721B102881E
:1016A00042F02002028004E002884FF6DF731A4005
:1016B000028070470146088B0012704721B10288F2
:1016C00042F01002028004E002884FF6EF731A40E5
:1016D0000280704721B9028842F08002028004E053
:1016E00002884FF67F731A4002807047B1F5804F31
:1016F00005D0828B4BF6FF731A40828303E0828B06
:1017000042F480428283704770B50246002400256F
:1017100000230020958A138B1B0445EA030626F05C
:101720007F4404EA01068E4201D1012000E000203E
:1017300070BD10B501460020002300228B8A0A8B61
:10174000120443EA020424F07F4010BD0CB50246A7
:10175000002000230193009300920B0F019321F0CE
:101760007F41019B1BB1009B1433009303E0090CE4
:10177000009B18330093009B1B680B400BB10120AA
:1017800000E000200CBD002221F07F42D343838281
:10179000704730B5024600200023948801F0E065D0
:1017A00004EA154321F07F41948A0C4054B14BB1B7
:1017B000012008E00054004000127A0040420F006F
:1017C000A0860100002030BD002221F07F42D343DB
:1017D00083827047E648006840F00100E4490860F1
:1017E00008464068E3490840E14948600846006807
:1017F000E1490840DE4908600846006820F480207E
:1018000008600846406820F4FE0048604FF41F005E
:1018100088600020C8627047D549096821F480318A
:10182000D34A11601146096821F480211160B0F596
:10183000803F03D0B0F5802F0ED106E0CC49096877
:1018400041F48031CA4A116007E0C949096841F48E
:10185000A021C74A116000E000BF00BF704710B56B
:1018600001460022002300204A11012A02D1C04C67
:10187000236806E0022A02D1BD4C236A01E0BC4C79
:10188000636A01F01F02012494401C400CB1012046
:1018900000E0002010BD38B5002000900024002595
:1018A00000BF3120FFF7DBFF05460098401C009089
:1018B0000098B0F5A06F01D0002DF2D03120FFF7D5
:1018C000CEFF08B1012400E00024204638BD0146C7
:1018D0000020A74A106820F0F80040EAC10010601C
:1018E0007047A6490860704702460020A04B586820
:1018F00020F4741042EA010318439D4B586070476E
:101900009E490866704702460020994BD86A9C4B56
:10191000184042EA01031843954BD86270470146CC
:101920000020934A506820F003000843506070473D
:101930008F48406800F00C007047014600208C4A38
:10194000506820F0F00008435060704701460020C6
:10195000874A506820F4E0600843506070470146B1
:101960000020834A506820F4605040EAC100506073
:10197000704729B17E4A527A02437D4B5A7204E085
:101980007B4A527A82437A4B5A7270477B49D831EC
:101990000860704701460020754A506820F44040B6
:1019A0000843506070470021714A20321170704A1C
:1019B00082F82010012802D004280AD104E0012175
:1019C0006B4A2032117005E00521694A20321170FE
:1019D00000E000BF00BF70476A4908607047644973
:1019E000096A0143624A11627047664944390860D6
:1019F000704770B5002100230024002200255C4EB2
:101A0000766806F00C0121B1042905D0082921D1FE
:101A100005E05D4E066020E05B4E06601DE0544E22
:101A2000766806F47013524E766806F48034022607
:101A300006EB93431CB9554E5E43066009E04C4EDD
:101A4000F66A06F00F06751C4F4EB6FBF5F65E43C0
:101A5000066002E04C4E066000BF00BF444E766850
:101A600006F0F00109094A4E725C0668D6404660ED
:101A70003F4E766806F4E061090A454E725C46689E
:101A8000D64086603A4E766806F46051C90A404EE8
:101A9000725C4668D640C660354E766806F44041B2
:101AA000890B3C4E725CC668B6FBF2F6066170BDEF
:101AB00029B12F4A526902432D4B5A6104E02C4A46
:101AC000526982432A4B5A61704729B1284A926968
:101AD0000243274B9A6104E0254A92698243244BD2
:101AE0009A61704729B1224AD2690243204BDA61D8
:101AF00004E01F4AD26982431D4BDA61704729B165
:101B00001B4AD26802431A4BDA6004E0184AD268D2
:101B10008243174BDA60704729B1154A12690243B4
:101B2000134B1A6104E0124A12698243104B1A6186
:101B3000704714494039086070471049C8647047BD
:101B40000B49C87170470A48406A40F080700849E4
:101B50004862704701460020054A92680A400AB16F
:101B6000012000E0002070470149887270470000A2
:101B7000001002400000FFF8FFFFF6FE00004242A6
:101B8000F0FFFEFF8004424200127A0000093D008F
:101B90000C0000201C00002010B50446BE48844202
:101BA00008D101218014FFF7AAFF0021A014FFF73C
:101BB000A6FF16E0B948844208D101210014FFF7BE
:101BC000ABFF00212014FFF7A7FF0AE0B4488442CE
:101BD00007D10121C013FFF79FFF0021E013FFF79A
:101BE0009BFF10BD10B50022028802F441520B8801
:101BF0004C8823438C882343CC8823430C8923437C
:101C00004C8923438C892343CC8923431A43028084
:101C1000838B4FF2FF74234083830B8A038210BDB2
:101C20002DE9F04F85B005460C464FF0000902271C
:101C30004FF000084FF0010B0026B246A88B4FF280
:101C400040010840A88302202884B5F81C90A068B1
:101C5000022801D100BF38E0A08810B94FF0010B75
:101C600001E04FF0020B8D48854200D100E000BF3B
:101C70006846FFF7BEFEDDF800A0E088B0F5007F03
:101C80000AD14FEA1A2000EB80004000A168B0FBA7
:101C9000F1F0401D86B20BE04FEA4B10BAFBF0F0BA
:101CA00000EB80004000A168B0FBF1F0401D86B25F
:101CB0000A20B6FBF0F606F00108A6EB0800C0F318
:101CC0004F074FF6FF7000EA0828022F01DBFF2FB5
:101CD00002DD02274FF00008E08840EA08003843A0
:101CE0002884A088A1890843618808432188084383
:101CF00040F4006040EA0909A5F81C9005B0BDE871
:101D0000F08F0021018041808180C180018141816B
:101D10008181C181072101827047002101804180BA
:101D20008180C1800221816000218181704721B1C1
:101D3000028842F04002028004E002884FF6BF733E
:101D40001A400280704721B1828B42F48062828304
:101D500004E0828B4FF6FF331A408283704730B520
:101D6000002400230C110125A540ABB21AB18588CF
:101D70001D43858002E085889D43858030BD1AB172
:101D800083880B43838002E083888B438380704782
:101D9000818170470146888970474FF6FF62914202
:101DA00004D0028842F48072028004E002884FF678
:101DB000FF631A400280704721B1828842F004021A
:101DC000828004E082884FF6FB731A40828070475D
:101DD00002884FF2FF731A40028002880A43028091
:101DE0007047018841F480510180704721B1028819
:101DF00042F40052028004E002884DF6FF731A405C
:101E00000280704702460020012901D0108B00E0BB
:101E1000908A70470146088A7047B1F5804F04D117
:101E2000028842F48042028004E002884BF6FF738D
:101E30001A40028070470246002013890B400BB104
:101E4000012000E000207047CA4302817047F0B5CE
:101E50000246002000240023002501F00F07012680
:101E6000BE40B4B20B1101269E40B3B2968806EA7A
:101E700003051689264016B10DB1012000E00020AF
:101E8000F0BD10B5002201F00F040123A3409AB267
:101E9000D343038110BD00000030014000380040F2
:101EA000003C004010B50446FE48844208D10121A0
:101EB000C014FFF724FE0021E014FFF720FEC4E069
:101EC000B4F1804F08D101210846FFF725FE00211B
:101ED0000120FFF721FEB8E0F348844208D1012138
:101EE0000220FFF719FE00210220FFF715FEACE0EB
:101EF000EE48844208D101210420FFF70DFE0021A5
:101F00000420FFF709FEA0E0E948844208D101213E
:101F10000820FFF701FE00210820FFF7FDFD94E0F7
:101F2000E448844208D101211020FFF7F5FD00218B
:101F30001020FFF7F1FD88E0DF48844208D101213D
:101F40002020FFF7E9FD00212020FFF7E5FD7CE0E0
:101F5000DA48844208D101214014FFF7D0FD002166
:101F60006014FFF7CCFD70E0D548844209D101210F
:101F7000C804FFF7C4FD00214FF40020FFF7BFFDA8
:101F800063E0D048844209D101210805FFF7B7FD7D
:101F900000214FF48010FFF7B2FD56E0CA4884429A
:101FA00009D101214805FFF7AAFD00214FF40010D7
:101FB000FFF7A5FD49E0C548844208D10121402032
:101FC000FFF7AAFD00214020FFF7A6FD3DE0C04835
:101FD000844208D101218020FFF79EFD002180204E
:101FE000FFF79AFD31E0BB48844208D101218015FA
:101FF000FFF792FD0021A015FFF78EFD25E0B64802
:10200000844209D101210804FFF779FD00214FF432
:102010008030FFF774FD18E0B048844209D10121F7
:102020004804FFF76CFD00214FF40030FFF767FD17
:102030000BE0AB48844208D101218804FFF75FFD23
:1020400000214FF48020FFF75AFD10BD00220288C6
:10205000944B98420ED0994B98420BD0B0F1804FE0
:1020600008D0914B984205D0904B984202D0904BAB
:10207000984204D14FF68F731A404B881A438D4B08
:10208000984207D08C4B984204D04FF6FF431A4039
:10209000CB881A4302808B8883850B880385814B0C
:1020A00098420BD0854B984208D08B4B984205D074
:1020B0008A4B984202D08A4B984201D10B7A038610
:1020C00001238382704770B5002400220023058C11
:1020D0004FF6FE7635400584028C8388048B4FF6DC
:1020E0008F752C40B51E2C400D882C43751E2A4040
:1020F0000D892A434D882A436A4DA8420BD06F4D63
:10210000A84208D0744DA84205D0744DA84202D010
:10211000734DA84213D14FF6F7752A404D892A43D3
:102120004FF6FB752A408D882A434FF6FF652B40FA
:102130004FF6FF552B408D892B43CD892B43838050
:102140000483CD888586028470BD70B5002400228A
:102150000023058C4FF6EF7635400584028C83888A
:10216000048B48F6FF752C404FF6FF452C400D8838
:102170004FF6FF7606EA05252C434FF6DF752A4019
:102180000D8906EA05152A434D8806EA05152A43F6
:10219000444DA84202D0494DA8421DD14FF67F754B
:1021A0002A404D894FF6FF7606EA05152A434FF679
:1021B000BF752A408D8806EA05152A434FF6FF357C
:1021C0002B404FF2FF752B408D8906EA85052B4386
:1021D000CD8906EA85052B4383800483CD88058756
:1021E000028470BD70B5002400220023058C4FF6D8
:1021F000FF6635400584028C8388848B4FF68F758B
:102200002C404FF6FC752C400D882C434FF6FF55A3
:102210002A400D894FF6FF7606EA05252A434D88A8
:1022200006EA05252A431F4DA84202D0234DA842A5
:102230001DD14FF2FF752A404D894FF6FF7606EA11
:1022400005252A434FF6FF352A408D8806EA0525E5
:102250002A434EF6FF752B404DF6FF752B408D89B6
:1022600006EA05152B43CD8906EA05152B43838025
:102270008483CD888587028470BD70B500220023D9
:102280000024058C4EF6FF7635400584038C848847
:10229000828B48F6FF752A404FF6FF452A400D888D
:1022A00020E00000002C0140000400400008004035
:1022B000000C0040001000400014004000340140B9
:1022C000004C014000500140005401400018004003
:1022D000001C00400020004000400140004401403C
:1022E000004801404FF6FF7606EA05252A434DF6E1
:1022F000FF752B400D8906EA05352B434D8806EA0C
:1023000005352B43FA4DA84202D0FA4DA84208D118
:102310004BF6FF752C408D894FF6FF7606EA851542
:102320002C4384808283CD88A0F84050038470BD04
:10233000828B4FF2FF331A408283828B4FF6FF73FA
:1023400003EA01231A4382837047F0B50C46154611
:10235000002200210026078C4EF6FF7C07EA0C07BE
:102360000784828B018C4FF6FF7707EA043640F62C
:10237000FF473A404FF6FF7707EA05273A434FF603
:10238000FF7707EA03373A43D94FB8420ED0D94F07
:10239000B8420BD0B0F1804F08D0D74FB84205D02B
:1023A000D64FB84202D0D64FB84206D14DF6FF778D
:1023B000394046F48057394305E047F6FF57394026
:1023C00044F48057394382830184F0BD828B4FF6F9
:1023D000F3731A408283828B0A4382837047F0B57D
:1023E0000C461546002200210026078C4FF6FF6C94
:1023F00007EA0C070784828B018C4FF6FF7707EA08
:1024000004264FF60C773A404FF6FF7707EA03179A
:102410002F433A43B64FB8420ED0B64FB8420BD016
:10242000B0F1804F08D0B44FB84205D0B34FB84296
:1024300002D0B34FB84206D14FF6FF57394046F4A9
:102440008077394305E04FF2FF57394044F48077F5
:10245000394382830184F0BD028B4FF2FF331A406F
:102460000283028B4FF6FF7303EA01231A430283B0
:102470007047F0B50C461546002200210026078C57
:102480004FF6EF7C07EA0C070784028B018C4FF6AE
:10249000FF7707EA041640F6FF473A404FF6FF770A
:1024A00007EA03373A434FF6FF7707EA05273A432F
:1024B0008F4FB8420ED08F4FB8420BD0B0F1804F43
:1024C00008D08D4FB84205D08C4FB84202D08C4F07
:1024D000B84206D14FF6DF77394046F0100739434E
:1024E00005E04FF65F77394044F010073943028327
:1024F0000184F0BD028B4FF6F3731A400283028B06
:102500000A4302837047F0B50C46154600220021AD
:10251000068C4FF6FE773E400684028B018C4FF608
:102520000C7632407E1C06EA03162E433243704E70
:10253000B0420ED06F4EB0420BD0B0F1804F08D0F9
:102540006D4EB04205D06D4EB04202D06C4EB042DE
:1025500006D14FF6FD76314044F00106314305E0E7
:102560004FF6F576314044F0010631430283018491
:10257000F0BD70B505460C465D4885420ED05D48FD
:1025800085420BD0B5F1804F08D05B48854205D01D
:102590005A48854202D05A48854200D100E000BF27
:1025A000208850B92389A28861882846FFF7ABFFAD
:1025B000E1882846FFF79EFF25E0208804280AD1FD
:1025C0002389A28861882846FFF753FFE1882846BF
:1025D000FFF742FF17E0208808280AD12389A28844
:1025E00061882846FFF7FBFEE1882846FFF7EEFEEC
:1025F00009E02389A28861882846FFF7A6FEE188C2
:102600002846FFF795FE70BD2DE9F04105460C46C2
:1026100000260127608808B9022600E00026A0886D
:10262000012801D1022700E001272088A0B92389D1
:10263000A28861882846FFF766FFE1882846FFF7F1
:1026400059FF23893A4631462846FFF712FFE188B1
:102650002846FFF701FF13E02389A28861882846F6
:10266000FFF707FFE1882846FFF7F6FE23893A4681
:1026700031462846FFF747FFE1882846FFF73AFF33
:10268000BDE8F0810A884B881A438B881A43CB88AF
:102690001A430B891A434B891A438B891A43A0F8B2
:1026A000442070474FF6FF71818000210180C18076
:1026B0004180017270470021018041808180C1808A
:1026C000018141818181C181704700210180418068
:1026D000012181800021C18001817047002101809A
:1026E00041808180C18001814181818170470000EA
:1026F000002C01400034014000040040000800406C
:10270000000C004021B1028842F00102028004E086
:1027100002884FF6FE731A400280704731B1B0F85C
:10272000442042F40042A0F8442005E0B0F84420E0
:10273000C2F30E02A0F8442070471AB183890B43FC
:10274000838102E083898B43838170478182704754
:1027500041EA0203A0F8483070471AB183890B435D
:10276000838102E083898B438381704701894FF61F
:10277000F8721140018170470A46002101894FF625
:102780008F73194011430181704730B504460D46DF
:1027900029462046FFF7F0FF208940F007002081FE
:1027A00030BD2DE9F04104460D4616461F46602D0A
:1027B00006D13B46012231462046FFF75AFE05E08E
:1027C0003B46012231462046FFF79DFE2946204622
:1027D000FFF7D2FF208940F007002081BDE8F0819B
:1027E00030B50C4600210189C9B24FF6FF7505EAE4
:1027F0000325154325432943018130BD2DE9F041CF
:1028000005460E4617469846002443463A4631464A
:102810002846FFF7E5FF2C894FF6F870044044F096
:1028200007044FF68F70044044F070042C81BDE81B
:10283000F081F0B504460D4616461F463B4632462B
:1028400029462046FFF7CCFF208940F480402081B4
:10285000F0BD0185828270470A46002101884FF64B
:102860008F731940114301807047F0B50C4615462F
:102870001E460021002200230189028B038C4FF6A3
:10288000F877394021434FF6FC473A4040F20117B0
:102890003A434FF6DD773B404FF6FF7707EA0617DE
:1028A0002F433B43018102830384F0BD0A4600218C
:1028B000018B4FF68F7319401143018370470A460D
:1028C0000021018B48F6FF7319404FF6FF7303EAAE
:1028D00002231943018370470A460021818B4FF67A
:1028E0008F7319401143818370470A460021818B01
:1028F00048F6FF7319404FF6FF7303EA02231943AA
:102900008183704721B1028842F08002028004E096
:1029100002884FF67F731A400280704721B1828887
:1029200042F00402828004E082884FF6FB731A4072
:102930008280704721B1828842F00802828004E0E0
:1029400082884FF6F7731A408280704721B18288DF
:1029500042F00102828004E082884FF6FE731A4042
:10296000828070470A460021018B4FF6F7731940A9
:102970001143018370470A460021018B4FF2FF7318
:1029800019404FF6FF7303EA02231943018370478E
:102990000A460021818B4FF6F7731940114381835A
:1029A00070470A460021818B4FF2FF7319404FF6A2
:1029B000FF7303EA02231943818370470A4600210B
:1029C000018B4FF6FB7319401143018370470A4690
:1029D0000021018B4FF6FF3319404FF6FF7303EAD6
:1029E00002231943018370470A460021818B4FF669
:1029F000FB7319401143818370470A460021818B84
:102A00004FF6FF3319404FF6FF7303EA02231943D1
:102A1000818370470A460021018B4FF67F7319406E
:102A20001143018370470A460021018BC1F30E0157
:102A30004FF6FF7303EA02231943018370470A46E6
:102A40000021818B4FF67F731940114381837047BA
:102A50000A460021818BC1F30E014FF6FF7303EA92
:102A600002231943818370470A460021018C4FF6E7
:102A7000FD7319401143018470470A460021018CFF
:102A80004FF6F77319401143018470470A4600213D
:102A9000018C4FF6DF7319404FF6FF7303EA021300
:102AA0001943018470470A460021018C4FF67F7359
:102AB00019404FF6FF7303EA02131943018470476C
:102AC0000A460021018C4FF6FF5319404FF6FF7361
:102AD00003EA02231943018470470A460021018C4E
:102AE0004FF2FF7319404FF6FF7303EA02231943B5
:102AF000018470470A460021018C4DF6FF7319408E
:102B00004FF6FF7303EA023319430184704730B56F
:102B1000002301248C40A3B2048C9C430484048CC5
:102B200002FA01F5ADB22C43048430BD30B5002368
:102B300004248C40A3B2048C9C430484048C02FAC9
:102B400001F5ADB22C43048430BD70B503460020BE
:102B500000241846183001258D40ACB21D8CA543C9
:102B60001D8409B1082909D100EB6100056825F031
:102B7000700505600568154305600EE00D1FC5F37F
:102B80004E052844056825F4E045056005684FF6C4
:102B9000FF7606EA02263543056070BD21B1028842
:102BA00042F00202028004E002884FF6FD731A40F0
:102BB0000280704721B1028842F00402028004E0E2
:102BC00002884FF6FB731A400280704721B1828859
:102BD00042F08002828004E082884FF67F731A40C0
:102BE0008280704702884FF6F7731A40028002888D
:102BF0000A430280704782884FF68F731A408280A2
:102C000082880A438280704702894FF6F8731A401F
:102C1000028102890A430281704702894FF67F735D
:102C20001A40028102890A430281704781847047F9
:102C3000818570478186704701877047818770471B
:102C4000A0F84010704702884FF6FF431A400280F8
:102C500002880A43028070470146888E7047014609
:102C6000088F70470146888F70470146B1F84000D1
:102C700070470146888C70470146088D70470246B0
:102C80000020138A0B400BB1012000E000207047A8
:102C9000CA430282704730B5024600200023002458
:102CA000158A05EA0103958905EA010413B10CB1FF
:102CB000012000E0002030BDCA43028270470000BE
:102CC00010B50446FB48844209D101218803FEF770
:102CD00016FF00214FF48040FEF711FF32E0F64866
:102CE000844209D101214804FEF716FF00214FF468
:102CF0000030FEF711FF25E0F048844209D10121A0
:102D00008804FEF709FF00214FF48020FEF704FF3E
:102D100018E0EB48844209D10121C804FEF7FCFE0B
:102D200000214FF40020FEF7F7FE0BE0E548844257
:102D300008D101210805FEF7EFFE00214FF48010B5
:102D4000FEF7EAFE10BD2DE9F04786B005460E46B7
:102D50000024A24600BFA1460027B08900B100BFF1
:102D60002F462C8A4CF6FF700440F08804432C82D6
:102D7000AC894EF6F3100440B0883189084371895C
:102D800008430443AC81AC8A4FF6FF400440B0894D
:102D90000443AC8201A8FEF72CFEC648874202D14C
:102DA000DDF810A001E0DDF80CA0A88900F40040D7
:102DB00040B10AEBCA0000EB0A1031684900B0FBD1
:102DC000F1F807E00AEBCA0000EB0A10316889004D
:102DD000B0FBF1F86420B8FBF0F004012009642195
:102DE00001FB1089A88900F4004040B1322000EBBB
:102DF000C900B0FBF1F000F00700044308E0322006
:102E000000EB09106421B0FBF1F000F00F00044367
:102E10002C8106B0BDE8F0874FF416510160002107
:102E20008180C18001810C21418100218181704715
:102E300010B502460020108A4FF2FF0318400B889D
:102E40004C8823438C882343CC8823431843108227
:102E500010BD0021018041808180C180704721B177
:102E6000828942F40052828104E082894DF6FF7328
:102E70001A4082817047F0B50346002400260025E1
:102E8000002040F66A17B94200D100BF1846C1F3CE
:102E9000421401F01F06012707FA06F5012C01D1A3
:102EA0000C3004E0022C01D1103000E014301AB1D3
:102EB00007682F43076002E00768AF430760F0BD73
:102EC0001AB1838A0B43838202E0838A8B43838215
:102ED0007047028A4FF6F0731A400282028A0A4350
:102EE0000282704782894FF2FF731A408281828981
:102EF0000A438281704721B1828942F002028281B5
:102F000004E082894FF6FD731A4082817047028A7D
:102F10004FF6DF731A400282028A0A430282704728
:102F200021B1028A42F48042028204E0028A4BF616
:102F3000FF731A4002827047C1F308028280704713
:102F400001468888C0F308007047818941F001017B
:102F500081817047028BD2B20283028B42EA012246
:102F600002837047028B02F47F420283028B0A4382
:102F70000283704721B1828A42F02002828204E0FB
:102F8000828A4FF6DF731A408282704721B1828AAB
:102F900042F01002828204E0828A4FF6EF731A40F8
:102FA0008282704721B1828A42F00802828204E064
:102FB000828A4FF6F7731A408282704721B1828964
:102FC00042F40042828103E08289C2F30E028281D0
:102FD000704721B1828A42F40062828204E0828AD0
:102FE0004FF2FF731A4082827047828A4FF6FB735A
:102FF0001A408282828A0A438282704721B1828A81
:1030000042F00202828204E0828A4FF6FD731A4087
:103010008282704702460020B1F5007F00D100BFD8
:1030200013880B400BB1012000E00020704701F431
:103030000072B2F5007F00D100BFCA430280704722
:1030400070B50246002400230025002040F66A16D1
:10305000B14200D100BFC1F3421501F01F030126A8
:1030600006FA03F3012D02D19689334006E0022DC2
:1030700002D1168A334001E0968A33400C120126B1
:1030800006FA04F41688344013B10CB1012000E0B4
:10309000002070BD10B50022002340F66A14A14242
:1030A00000D100BF0A1201249440A3B2DC43048083
:1030B00010BD0000003801400044004000480040BE
:1030C000004C00400050004000280DDB00BF00BF56
:1030D00000F01F02012191404209920002F1E0221A
:1030E000C2F8001100BF00BF704700280BDB00F0E2
:1030F0001F02012191409F4A430942F82310BFF368
:103100004F8FBFF36F8F704770B505460C46012D8A
:1031100071D19948406940F0010097494861082CF5
:1031200060D2DFE804F05F04101C29364350002011
:10313000924988600F2048600B2000F00FF90B20A7
:10314000FFF7C2FF4EE000208C49C861F0204860C4
:103150000C2000F003F90C20FFF7B6FF42E000203E
:10316000864908634FF4706048600D2000F0F6F85F
:103170000D20FFF7A9FF35E00020804948644FF497
:10318000704048600E2000F0E9F80E20FFF79CFF29
:1031900028E00020794988654FF4702048600F20AE
:1031A00000F0DCF80F20FFF78FFF1BE000207349D1
:1031B000C8664FF470004860102000F0CFF810206F
:1031C000FFF782FF0EE000206C49803108604FF06D
:1031D00070606A494860112000F0C0F81120FFF7C4
:1031E00073FF00BF00BF0120A04065490978084374
:1031F0006349087000BF00BF70BD70B505460C463E
:10320000012D4ED15E48007800B970BD082C37D230
:10321000DFE804F036040B121920272E0B20FFF7ED
:1032200064FF0020554988602AE00C20FFF75DFF0D
:1032300000205249C86123E00D20FFF756FF00200F
:103240004E4908631CE00E20FFF74FFF00204B495A
:10325000486415E00F20FFF748FF002047498865C4
:103260000EE01020FFF741FF00204449C86607E048
:103270001120FFF73AFF002040498031086000BF6D
:1032800000BF0120A0403E49097881433C480170BD
:10329000007828B93848406920F001003649486173
:1032A00000BF00BF00BFB0E770477047704770476E
:1032B00070477047704710B53048006800F00F0441
:1032C0002E4844602046FFF7EFFF10BD10B52B4895
:1032D0000068C0F303142001284948602046FFF726
:1032E000E4FF10BD10B525480068C0F30324200298
:1032F000224948602046FFF7D9FF10BD10B51F488E
:103300000068C0F3033420031C4948602046FFF7DF
:10331000CEFF10BD10B519480068C0F30344200467
:10332000164948602046FFF7C3FF10BD10B513488B
:103330000068C0F303542005104948602046FFF799
:10334000B8FF10BD10B50D480068C0F30364200637
:103350000A4948602046FFF7ADFF10BD002807DB93
:1033600000F01F0201219140064A430942F8231050
:103370007047000080E100E00010024000000240C1
:103380002000002080E200E009488047094800470B
:10339000FEE7FEE7FEE7FEE7FEE7FEE7FEE7FEE705
:1033A000FEE7FEE704480549054A064B7047000062
:1033B0008334000821010008D0000020D00600203E
:1033C000D0020020D00200200CB500200190009017
:1033D0006348006840F480306149086000BF60487D
:1033E000006800F4003000900198401C01900098A3
:1033F00018B90198B0F5A06FF1D15948006800F4F0
:10340000003010B10120009001E0002000900098F1
:10341000012831D152484068514948600846406807
:1034200048600846406848600846406820F47C10C0
:1034300048600846406840F49810486008460068B4
:1034400040F08070086000BF4548006800F00070E0
:103450000028F9D04248406820F003004049486005
:103460000846406840F00200486000BF3C484068A1
:1034700000F00C000828F9D10CBD10B5FFF7A4FF2F
:1034800010BD10B53648006840F0010034490860AE
:10349000084640683349084031494860084600689A
:1034A000314908402E4908600846006820F4802011
:1034B00008600846406820F4FE0048604FF41F0092
:1034C00088600020C862FFF7D8FF4FF000602749EE
:1034D000086010BD30B50021002000220023204CE0
:1034E000646804F00C0121B1042906D0082925D113
:1034F00007E01F4C1F4D2C6024E01D4C1D4D2C601F
:1035000020E0174C646804F47010154C646804F4EF
:103510008032022404EB904022B9174C4443154DED
:103520002C600AE00E4CE46A04F00F04631C104C9B
:10353000B4FBF3F444430F4D2C6003E00C4C0D4DF1
:103540002C6000BF00BF064C6468C4F303140B4D2D
:10355000295D084C2468CC40064D2C6030BD00002D
:10356000001002400000FFF8FFFFF6FE08ED00E04B
:1035700000127A002400002000093D0028000020ED
:103580000FB41CB5074B06AA7B446946009005980A
:1035900000F0C5FB0020694600F0D4FB1CBC5DF8C0
:1035A00014FB0000B907000070B504468569006887
:1035B000C10601D5302600E02026C00707D070BD27
:1035C000D4E9012130469047206A401C20626D1EDC
:1035D000F6D570BD70B5044685690078C00707D17F
:1035E00070BDD4E9012120209047206A401C206250
:1035F0006D1EF6D570BD00002DE9F0410646002491
:1036000010687529314616A510D0AFF30080002848
:1036100002DA404213A507E031688A0701D512A5F6
:1036200002E0490704D511A5012401E0AFF30080B1
:1036300000210A2206F1240709E0B0FBF2FCB0FBEE
:10364000F2F302FB1C00303078541846491C002865
:10365000F3D123462A463046BDE8F04100F0F2B8E7
:10366000000000002D0000002B00000020000000E2
:1036700070B504460D4621461068AFF300802188DE
:10368000090502D50F4A7A4402E00E4A7A440E3206
:10369000002104F1240305E000F00F060009965D07
:1036A0005E54491C0028F7D120780023000704D578
:1036B000702D02D009B1022311322046BDE87040BE
:1036C00000F0C0B8541400002DE9F05F89460446AC
:1036D0004FF0000ADFF824B1FB44C0F820A02046D8
:1036E000E168884700287DD0252806D0D4E901214B
:1036F0009047206A401C2062F1E700255F46204683
:10370000E16888472028064607DB312E05D2B81924
:1037100010F8200C08B10543F1E7A80701D525F002
:103720000405C4F81CA00027C4F818A02A2E09D04C
:10373000304601F05EF838B304EB8708303EC8F835
:10374000186019E059F8041B204604EB87029161C8
:10375000E1688847012F064618D1E069002820DA81
:1037600025F020051DE0D8F8180000EB800006EBDE
:1037700040003038C8F818002046E16888470646FF
:1037800001F037F80028EED1012F0AD02E2E08D1F3
:103790002046E16888477F1C0646022F45F0200539
:1037A000C4DBA069002803DA404245F00105A061AE
:1037B000E80701D025F01005A6B1A6F141001928AF
:1037C00002D8203645F400654A4631462046256039
:1037D0004D46FCF7DFFC60B1012807D0ED1D25F058
:1037E000070000E007E000F1080978E705F10409A7
:1037F00075E730467AE7206ABDE8F09F2A1400009A
:1038000010B5431C02E010F8011B71B18107FAD119
:103810004FF0013202C88C1A8C4314EAC211F9D05D
:10382000C01A0A0603D0C01E10BDC01A10BD0A047B
:1038300001D0801E10BD0902FCD0401E10BD704793
:10384000704770472DE9F0470D4699469246044669
:1038500000F124080168880604D5E06921F0100110
:10386000216000E00120A84201DD471B00E00027A5
:10387000A1697A1902EB0900081AA0612078C00634
:1038800002D42046FFF790FE002608E0D4E901218B
:103890001AF806009047206A401C761C20624E45AC
:1038A000F4DB2078C0060AD52046FFF77DFE06E04F
:1038B000D4E9012130209047206A401C2062381E44
:1038C000A7F10107F4DC07E0D4E9012118F80500AD
:1038D0009047206A401C2062281EA5F10105F3DCF8
:1038E0002046FFF777FE2078000602D50220BDE8CB
:1038F000F0870120FBE770472DE9FF4F0C461E467D
:103900004FF0FF378BB0D2E90001DDF860800A90FC
:103910008A46C1F30A5505B93D46002108464FF0D5
:103920000000BAF1000F00F4400005DA00EB80005F
:103930004FF4400101EA50004FEA9059B9F1010FEC
:1039400000DDB9460A9850EA4A000ED044F61050FD
:10395000A5F2FF3545432F14B8F1000F1ED0754274
:10396000291E1EDDC9F100021CE0B8F1010F4FF065
:10397000000001D0302103E0F24305E02154401C57
:10398000B042FBDB30460022002121540B99C1F8E4
:103990000880C1E900200FB0BDE8F08FBD1B6D1C91
:1039A000DEE74A4600DA694206A800F05BFA06AB99
:1039B00093E8070003AB83E8070050460A9900F03C
:1039C0003CFB8DE80700A0F500501F3800900398DD
:1039D000002D0ADD42F21F014A460844002303A9D4
:1039E0000390684600F0A5FD09E0A0F500504A46A6
:1039F0001F38002303A90390684600F0AFFD8DE84F
:103A000007000004000C03D04FF0FF30410800E035
:103A10001046B8F1000F03D00022009215461EE0B8
:103A2000751E05D400F098F9303262556D1EF9D537
:103A3000B3460122084302D000227F1C04E0207814
:103A4000302801D100227F1E002A099784D01DE072
:103A5000112D07DA00F080F9303262556D1C50EA02
:103A60000102F5D1084302D00098C8B10EE0002150
:103A7000681E05E0235C625C63542254401E491CAE
:103A80008142F7DBAB46A81B401E0990002004F8DA
:103A90000B000B98099AC0F80880C0E9002B7AE760
:103AA00011264FF0000857E72DE9F04F88460446ED
:103AB000D21D22F0070191B0D1E90001CDE90A0140
:103AC00000F083FE02460B98C00F01D02D2007E0C6
:103AD0002068810701D52B2002E0202101EAC000E7
:103AE000032A099001D0072A05DB034641462046F8
:103AF00000F078F90BE12078800601D5E06900E05C
:103B00000620B8F1650F814606D0B8F1660F18D0CF
:103B1000B8F1670F70D131E00020B9F1110F0090BA
:103B200001DB112301E009F101030AAA01A90CA894
:103B3000FFF7E2FEDDE90C70002609F1010583467E
:103B400047E001204B4600904FF000470AAA01A928
:103B50000CA8FFF7D1FEDDE90DB00C995D460026FB
:103B600010B909F101000D18B9EB050003D4C0F13B
:103B7000FF3609F10105A5EB09002BE0B9F1010FB2
:103B800001DA4FF001090020B9F1110F0090484609
:103B900001DD112300E003460AAA01A90CA8FFF7E2
:103BA000ABFEDDE90C704D46002683462078000709
:103BB0000AD4AB4500DA5D4601A8012D04DD4119A8
:103BC00011F8011C302907D04F4502DA17F1040F14
:103BD00004DA012082460FE06D1EEEE7002F02DCC2
:103BE000ED1B3E4403E0781CA84200DD7D1CB81BA1
:103BF00000F1010A4FF000472078000703D4AA45DE
:103C000001DB4FF0FF3A0021B7F1004F0DF14308FF
:103C10008DF8431024D002202B23002F01DA7F429D
:103C20002D230A21021EA0F1010000DC5FB197FBE9
:103C3000F1FC97FBF1F201FB1C7C17460CF1300CF8
:103C400008F801CDEEE7A8F101000370218809050D
:103C500001D5452100E06521A0F1010800F8011C13
:103C600009980FA9A1EB0807FF1D00B10120411918
:103C700001EBEA70A1693844081A401EA06120785F
:103C8000C00602D42046FFF78FFC099828B1D4E97A
:103C900001219047206A401C20622078C00622D56E
:103CA0002046FFF781FC1EE0002E04DBB34502DD59
:103CB00001A8805D00E03020D4E901219047206A0E
:103CC000401C2062761CAAF101005FEA000A0AD1BA
:103CD00000F03EF8C0680168405CD4E901219047DB
:103CE000206A401C2062281EA5F10105DCDC07E0EB
:103CF000D4E9012118F8010B9047206A401C20628A
:103D0000381EA7F10107F3DC2046FFF763FC032010
:103D100011B041E601694A1C02610878704700B59C
:103D20008FB0CDE901310021059105497944CDE9F4
:103D3000031011466846FFF7C7FC0FB000BD000036
:103D4000E5FFFFFF0A6802F8010B0A6070470000F8
:103D5000004870478C00002030B5B0F10A024FEAED
:103D6000900E71F100034EEA817EB0EB0E0061EB24
:103D700091014FEA101E4EEA017E10EB0E0041EB5E
:103D800011114FEA102E4EEA016E10EB0E0041EBBE
:103D900011214FEA104E4EEA014E10EB0E0041EB9E
:103DA0001141401841F100014FEAD00040EA417052
:103DB0004FEAD10110EB80054FEA810444EA907488
:103DC00044EB01046D1944EB0404521BA3414FF072
:103DD000000348BF0A3200D530BD401C41F100014C
:103DE00030BD00002DE9F0411F460446032601685E
:103DF000072A01F4006004DB08B116A505E016A54A
:103E000003E008B115A500E015A521F01000206021
:103E1000A069C01EA0610FB1401EA0612046FFF73F
:103E2000C3FB4FB1D4E9012138469047206A401CBA
:103E30002062C01C206206E0206AFAE7D4E9012172
:103E400015F8010B9047761EF8D22046FFF7C2FB0B
:103E5000BDE8F0814E414E006E616E00494E460055
:103E6000696E66002DE9F047814616468AB03548EE
:103E700078440DC88DE80D0032487844801C03ACAE
:103E80000DC884E80D0041F69B300844372190FBB3
:103E9000F1F290FBF1F5A5F1800501FB12041B3C4A
:103EA00002D56442012000E00020DFF898A080469F
:103EB0000027FA44AAF1BE0A0EE0E0070AD0324613
:103EC000684607EB470101230AEB810100F046FB3E
:103ED0008DE8070064107F1C002CEED1194F7F4441
:103EE000AE3F19E0E80715D007EB04100DF1180AF2
:103EF00090E80E008AE80E00C068F04201D19819DF
:103F000008903246012306A903A800F027FB03AB63
:103F100083E807006D10641C002DE3D14FF001030E
:103F200032466946B8F1000F03A802D000F001FB49
:103F300001E000F013FBC9E90001C9F808200AB04C
:103F4000BDE8F087200D0000004870476C0000209D
:103F50007546FFF7F9FFAE4605006946534620F067
:103F60000700854618B020B5FFF71CFABDE82040D1
:103F70004FF000064FF000074FF000084FF0000B25
:103F800021F00701AC46ACE8C009ACE8C009ACE8D8
:103F9000C009ACE8C0098D46704710B50446AFF3C0
:103FA00000802046BDE81040FCF714B94FF0013CFA
:103FB00050F8042B51F8043B9A4221D1A2EB0C0398
:103FC000934313EACC1317D150F8042B51F8043B58
:103FD0009A4215D1A2EB0C03934313EACC130BD1F5
:103FE00050F8042B51F8043B9A4209D1A2EB0C0380
:103FF000934313EACC13DBD04FF00000704700BFAF
:10400000D01A01BAB1FA81F101F0180122FA01F0D7
:10401000CB40C1F12001DBB2C0B2C01A2CFA01F3CF
:10402000D11A914311EAC311E6D170470149182012
:10403000ABBEFEE72600020070475FEA400C08BFF7
:1040400091F0000F4FEA8C234FEAC12243EA51510D
:104050004FEA1C5018BF00F5F0404FEA300018BF7F
:1040600041F000415FEA6C5C00F02980BCF1FF3F49
:1040700008BF40F080407047130C06BF12044FF099
:10408000100C4FF0000C130E04BF12020CF1080CC0
:10409000130F04BF12010CF1040C930F04BF920024
:1040A0000CF1020CD30F04BF52000CF1010C1146AD
:1040B0004FF00002A0F11F00A0EB0C00704711F0C0
:1040C000004F08BF704731F000413FF4D5AF0B0CF3
:1040D00006BF09044FF0100C4FF0000C0B0E04BF8C
:1040E00009020CF1080C0B0F04BF09010CF1040CC0
:1040F0008B0F04BF89000CF1020CCB0F04BF4900E9
:104100000CF1010CCCF12003A0EB0C0022FA03F31C
:1041100002FA0CF241EA030100F10100704720F0BD
:104120007F4C80EA030023F07F47ACEB070303F5E5
:104130007C5300F0004003F1FF032DE980494FEA72
:10414000154B09B44FEA144325EA0B4E24EA034801
:104150000FF2042606EB132749083E785FEA320285
:1041600003FB0667C7F5000707FB06F64FEA54375F
:104170004FEAD64606F1020607FB066CCCF1005C5E
:104180004FEA1C472CEA074C07FB06F40CFB06F52C
:1041900004EB15464FEA961634BF00204FF000405E
:1041A0004FEAD13706FB07FC4FEA1C4C0CFB0BF720
:1041B000D21B03FB0CF761EB07010CFB0EF7B0EB16
:1041C000074072EB17420CFB08F734BFA2EB074223
:1041D000B2EB074261EB17414FEA0C444FEA9107FB
:1041E00006FB07FC4FEA1C4C0CFB0BF7B0EBC7407F
:1041F00072EB573203FB0CF734BFA2EBC742B2EBB2
:10420000C74261EB57310CFB0EF7B0EBC70072EB06
:1042100057720CFB08F734BFA2EBC702B2EBC70220
:1042200061EB5771039F4FEA816141EA921104EB00
:10423000CC044FEAD1374FEA826206FB07FC42EA20
:1042400090124FEA80604FEA1C4C0CFB0BF7D21B1C
:1042500003FB0CF761EB07010CFB0EF7B0EB07401B
:1042600072EB17420CFB08F734BFA2EB0742B2EB2C
:10427000074261EB17414FEA8C554FEA910704EB77
:104280009C2406FB07FC4FEA1C4C0CFB0BF7B0EB25
:10429000C74072EB573203FB0CF734BFA2EBC742A7
:1042A000B2EBC74261EB57310CFB0EF7B0EBC70026
:1042B00072EB57720CFB08F734BFA2EBC702B2EBEC
:1042C000C70261EB577115EB4C254FEA816141EA5A
:1042D00092114FEA82624FEAD13742EA901206FB0E
:1042E00007FC44F100044FEA80604FEA1C4C0CFBD1
:1042F0000BF7D21B03FB0CF761EB07010CFB0EF76E
:10430000B0EB074072EB17420CFB08F734BFA2EB8F
:104310000742B2EB074261EB174115EB1C154FEA60
:10432000813141EA92414FEA823242EA90424FEAB9
:1043300080304FEA0C7644F1000448EA03434EEA29
:104340000B484FF0000EB2EB080C71EB030724BFD3
:10435000624639464EEB0E0E4FF0000B00185241EC
:1043600049414BEB0B0BB2EB080C71EB03077BF1F4
:10437000000B24BF624639464EEB0E0E4FF0000B89
:104380000018524149414BEB0B0BB2EB080C71EB9F
:1043900003077BF1000B24BF624639464EEB0E0E3D
:1043A00051EA020718BF46F0010616EB0E7655F1EA
:1043B000000254F1000103D5BDE88901BDE8008881
:1043C000BDE88901BDE80048B619524141EB010141
:1043D000A3F10103704780807F7E7D7C7B7A7978B2
:1043E000777676757473727171706F6E6E6D6C6CBA
:1043F0006B6A6A696868676666656464636362615C
:104400006160605F5F5E5E5D5D5C5C5B5B5A5A59DC
:104410005958585757565655555554545353525248
:104420005251515050504F4F4F4E4E4D4D4D4C4CA0
:104430004C4B4B4B4A4A4A494949484848474747E9
:104440004746464645454544444444434343434226
:10445000424242414141002B9C4630D477002BD050
:104460001CB54FEA370703B44FF010004FF01001AE
:10447000BAF1000F06D0BCF1000FDCBF40F008001D
:1044800040F008014FF000000FBCBDE810400BF1F8
:10449000010BBBF1010F08BF5FEA170722BF12F142
:1044A000010211F101014FF0004143F1000300F05E
:1044B000004043EA00007047F9D35708D0E746EAC6
:1044C000064613F1400F4FEA16461FDD13F1200F89
:1044D000DFBF16430A46002120335B42BED0C3F142
:1044E000200746EA064602FA07F74FEA164646EA6A
:1044F0000706C3F1200722FA03F201FA07F721FAAF
:1045000003F14FF0000342EA0702A7E746EA02067A
:1045100046EA06464FEA164646EA0106BCBF46EAA8
:104520000646360C4FF000034FF000024FF000013A
:1045300094E72DE9804C9A46934670B491E8380090
:1045400007C831EA400C48BF34EA430C03D5FFF7F3
:10455000E6FDFFF780FFF0BCBDE8008C2DE9804C44
:104560009A46934670B491E8380007C810F0804F1F
:1045700008BF13F0804F03D100F005F8FFF76BFF81
:10458000F0BCBDE8008C20F07F4780EA030023F0F8
:104590007F4C07EB0C03A3F57C5300F00040A3F124
:1045A000FE0392F0000F00F0B38095F0000F00F0D2
:1045B00077802DE901494FEA11404FEA144621EA7C
:1045C000004800FB06FC24EA064708FB06F607FB4A
:1045D00008F800FB07F718EB06484CEB164C4FEABF
:1045E000124B18EB07484FEA15464CEB174022EAEE
:1045F0000B4E0BFB06FC25EA06470EFB06F607FBF7
:104600000EFE0BFB07F71EEB064E4CEB164C4FF065
:1046100000061EEB074E4CEB174B18EB0B0840F156
:10462000000018EB0E0B58EB000840F100008F1A49
:104630004FF000013CBFC943661B14BFB5EB040C2F
:1046400000213CBFC943F61B4FEA17444EEA8E0EC9
:1046500027EA04454FEA1C4704FB07622CEA074C93
:1046600005FB07F70CFB05F604FB0CFC16EB0746F5
:1046700042EB174216EB0C4642EB1C421BEB0606C4
:1046800058EB0202414146EA9E0601D5BDE8018988
:10469000B619524141EB0101A3F10103BDE80189C3
:1046A0004FEA14454FEA114724EA054621EA074C30
:1046B00005FB07F406FB07F70CFB06F105FB0CFCFA
:1046C00011EB074144EB17444FEA124711EB0C4141
:1046D00044EB1C4422EA074C05FB07F206FB07F7F4
:1046E0000CFB06F605FB0CFC16EB074642EB1742EB
:1046F00016EB0C4642EB1C456A1854F1000148BF0A
:104700007047B619524141EB0101A3F10103704713
:1047100095F0000F37D04FEA11424FEA144721EAD3
:10472000024624EA074C02FB07F106FB07F70CFBE5
:1047300006F402FB0CFC14EB074441EB17414FEA73
:10474000154714EB0C4441EB1C4125EA074C02FBD6
:1047500007F506FB07F70CFB06F602FB0CFC16EB55
:10476000074645EB174516EB0C4645EB1C42121964
:1047700051F1000148BF7047B619524141EB0101A8
:10478000A3F1010370474FEA14454FEA114724EAA9
:10479000054621EA074C05FB07F106FB07F70CFB72
:1047A00006F24FF0000605FB0CFC12EB074241EB52
:1047B000174112EB0C4251EB1C4148BF7047921855
:1047C00041EB0101A3F101037047490050EAC12008
:1047D00018BF04204A0D18BF40F0010040F2FF72DC
:1047E000B2EB515F08BF40F00200012808BF05206E
:1047F000704730380A2801D20120704700207047E6
:1048000010B500290AD00878002807D00548784458
:10481000FFF7CCFB002801D0002010BD02487844EF
:1048200010BD0000BE030000B60300000808A0F59C
:1048300000114FEA3101704743004FEAD30C4FEAB1
:104840003C0C43401FBF40070CF1605113F0FE4F7A
:1048500070471CF0006F03D100200CF0004170473E
:104860000CF0004343EA507010B540EACC0000F071
:10487000E9F800BF000000924FEA0001FFF7D6BF41
:104880004FF000414FF00000A1F5002170470000FB
:104890004FF47F0C1CEAD0121EBF1CEAD11392EA1F
:1048A0000C0F93EA0C0F00F0858090EA010F48BFCF
:1048B00042F4807240F4000C41F400002CF07F417F
:1048C00020F07F4000B58142A2EB03020FF2081CEA
:1048D000ACEB504EC0F100009EF800E04FEA4E0EE7
:1048E00000FB0EFC38BF49004FEA2C1C02F5FA020F
:1048F0000CFB0EF34FEACE1E4FEA112C4FEAC121FA
:104900000EEB635E42EB22420EFB0CFC4FEA1C53A3
:1049100000FB03114FEA112C4FEA01310EFB0CFC96
:104920004FEADC4C00FB0C11C14228BF09184CEBCC
:1049300003335DF804EB10EB410143EBC250B2F5D9
:104940007C0F38BF704729D512F0F00F1CBF00F163
:10495000C04000F0004070470081828384858687D4
:1049600088898B8C8D8E8F919293959697999A9C2E
:104970009D9FA0A2A3A5A7A8AAACAEB0B2B3B5B79D
:10498000B9BCBEC0C2C5C7C9CCCED1D4D7D9DCDF73
:10499000E2E6E9ECF0F3F7FAFE0000004FEA400C23
:1049A0000CF1807CBCF17E4F28BF7047B0F1C04055
:1049B00000F08EB890EA010F0CEAD11348BF42F420
:1049C0008072624538BF634507D213F47F0F16D05B
:1049D00080EA010000F00040704710B500F032F8A6
:1049E000097EFC3E00F005B880EA010000F00040BE
:1049F000704780EA010000F0004000F069B812F44E
:104A00007F0F04BF0248704780EA010000F060B8E1
:104A10000000C07F10F0004148BF4042B0FA80F370
:104A200010FA03F2C3F19D030BD051EAC35101EB1D
:104A30001220530638BF704700F1010008BF20F074
:104A4000010070470EF1020E2EF0030E5EF8044BCB
:104A5000244204D44FEA4102B2F17F4F11D84FEA09
:104A60004003B3F17F4F0CD80ED14FEAD07CB2F1A6
:104A70007F4F0CEB4C0C0CF1020C08BF4CEBD17CC3
:104A800004E04FF0080C01E04FEAD17C0CEB4C0342
:104A900024FA03F404F00704B4F1040C06D20EEB7C
:104AA000840CBDE810404CF0010C6047DFE80CF0CE
:104AB000070802024FF00040A0F5800010BD084634
:104AC000420018BFD2F1807288BF00F0004010BDD4
:104AD000FF2141EAD050C0057047FEF7E5BF3031F5
:104AE0003233343536373839414243444546403015
:104AF00058003031323334353637383961626364C7
:104B000065664030780004000008000000000000E6
:104B1000000200010000100002400000000000A0A0
:104B20000000000005400000000000C80000000078
:104B30000C4000000000409C0000000019400000F4
:104B40000020BCBE0000000034400000BFC91B8E26
:104B500000000004B5400000504BCFD06607E2CF04
:104B6000010000006C4100003E8251AADFEEA73434
:104B700001000000D9420000DCB5A0E23A301F97E6
:104B8000FFFFFFFFB4450000FD25A0C8E9A3C14F0A
:104B9000FFFFFFFFFF3F000000000080000000005B
:104BA000FF3F00000000008000000000E84B00080C
:104BB00000000020380000005C010008204C0008C4
:104BC0003800002098060000780100081C00000052
:104BD00043000000F8FFFFFF0C0000000E00000083
:104BE0000F0000002E000000000000000000000088
:104BF00000010000000000000102030401020304A0
:104C000006070809020406080000000000366E01CD
:104C1000000000000000000001020304060708096C
:040000050800338933
:00000001FF
